:1000000019C033C0E8C431C030C0A4C52EC02DC053
:100010002CC02BC02AC029C028C027C026C084C538
:1000200085C586C587C588C589C58AC58BC58CC564
:100030008DC58EC511241FBECFE5D2E0DEBFCDBF7A
:1000400010E0A0E6B0E0EEE3FDE002C005900D9206
:10005000A636B107D9F710E0A6E6B0E001C01D92C0
:10006000AE37B107E1F70DD568C6CACFBC0140E095
:1000700050E0E3E4F0E016C0CF010197F1F72091E2
:1000800060003091610080916200909163002817B8
:10009000390771F48091680090916900892B41F4CF
:1000A0004F5F5F4F461757073CF320E030E002C038
:1000B00021E030E0C9010895209160003091610095
:1000C00080916200909163002817390749F480916C
:1000D0006A0090916B0020E030E08D549D4114F057
:1000E00021E030E0C901089580E090E0FC01EB5888
:1000F000FF4F1082019689309105C1F7089540E0C5
:1001000050E0AFE061E070E08091620090916300A8
:100110000C9781F02091620030916300CB01042E96
:1001200002C0880F991F0A94E2F7822393231816BE
:1001300019062CF4FA01EB58FF4FA08304C0FA0112
:10014000EB58FF4F10824F5F5F4F49305105E1F68A
:1001500010926B0010926A0012C0209160003091E2
:10016000610080916200909163002817390771F453
:1001700080916A0090916B008D549D413CF4809178
:100180006A0090916B008D3791053CF308950F93B1
:100190001F9310926B0010926A000FE039C010E0BC
:1001A00080E590E063DF892BD9F580E090E0FC01E9
:1001B000EB58FF4F1082019689309105C1F780E519
:1001C00090E054DF892B61F580E090E0FC01EB5872
:1001D000FF4F0083019689309105C1F71F5F1430EE
:1001E000F9F61EE08EE190E041DF892BC9F480E052
:1001F00090E0FC01EB58FF4F108301968930910588
:10020000C1F7115078F78AEF90E030DF892B41F485
:1002100080916A0090916B008C549D410CF4BFCF8B
:100220001F910F9108950F931F93CF93DF93109217
:100230006B0010926A0080E090E0FC01EB58FF4FE9
:100240001082019689309105C1F7C0E0D0E001E04D
:1002500010E031C0FE01EB58FF4F80818F30A9F4D0
:100260000130110551F4C830D10529F4C7E0D0E0C0
:100270000FEF1FEF0AC0219608C0209729F4C1E0B4
:10028000D0E001E010E001C02197FE01EB58FF4FE4
:1002900080818F5F8083FE01E01BF10BE930F10567
:1002A00028F4EB58FF4F80818150808384E690E0F2
:1002B000DDDE892B39F480916A0090916B008C54BB
:1002C0009D4144F2DF91CF911F910F910895FF92CC
:1002D0000F931F93CF93DF9310926B0010926A00DD
:1002E00080E090E0FC01EB58FF4F108201968930CE
:1002F0009105C1F7C0E0D0E001E010E08FE0F82EFA
:1003000035C082E390E0B2DE892BB9F520E030E021
:10031000F901EB58FF4F8081843020F080818450B8
:10032000808301C010822F5F3F4F2930310581F754
:10033000C930D10520F4FE01EB58FF4FF0820130A7
:10034000110551F4CD30D10529F4C8E0D0E00FEF0C
:100350001FEF0CC021960AC02FEFCB3FD20729F424
:10036000C0E0D0E001E010E001C0219780916A0078
:1003700090916B008C549D4124F2DF91CF911F919D
:100380000F91FF900895CF92DF92EF92FF920F931B
:100390001F93CF93DF9310926B0010926A0080E05E
:1003A00090E0FC01EB58FF4F1082019689309105D7
:1003B000C1F720E030E00FE030C0E9012196C930FC
:1003C000D10514F0C0E0D0E010E045E7C42E40E0D5
:1003D000D42EC20ED31E95E7E92E90E0F92EEC0E36
:1003E000FD1EF6010083F701008388E290E03EDE07
:1003F000892BD1F480E090E0FC01EB58FF4F108294
:10040000019689309105C1F788E290E02FDE892BB3
:1004100059F41F5F143029F79E0180916A00909172
:100420006B008C549D414CF2DF91CF911F910F9145
:10043000FF90EF90DF90CF90089580E090E021E072
:10044000FC01EB58FF4F2083019689309105C1F7DD
:1004500084E69AE10197F1F720E030E043E0A4E67A
:10046000BAE168E070E0CD010197F1F7F901EB58CE
:10047000FF4F1082FB01E21BF30BEB58FF4F108282
:10048000409379002F5F3F4F4D5F4F3061F784E617
:100490009AE10197F1F72FE042E35DE0CA0101978D
:1004A000F1F72150209379002223C1F70895FF929C
:1004B0000F931F93CF93DF9310926B0010926A00FB
:1004C00080E090E0FC01EB58FF4F108201968930EC
:1004D0009105C1F713C0C0E0D0E08E010B581F4F4B
:1004E000F801F08284E690E0C1DD892B81F4F80107
:1004F00010822196C930D10581F702C05FE0F52E48
:1005000080916A0090916B008C549D4124F3DF919F
:10051000CF911F910F91FF9008950F931F93109209
:100520006B0010926A0080E090E0FC01EB58FF4FF6
:100530001082019689309105C1F722C080E090E0D9
:10054000FC01EB58FF4F0083019689309105C1F7FC
:100550001EE084E190E08ADD892BD1F480E090E018
:10056000FC01EB58FF4F1083019689309105C1F7CC
:10057000115078F788EC90E079DD892B11F008C0F4
:100580000FE080916A0090916B008C549D41B4F211
:100590001F910F910895FF920F931F9310926B007C
:1005A00010926A0080E090E0FC01EB58FF4F10824F
:1005B000019689309105C1F7FF241FE035C000E0A6
:1005C000FF2049F410937500109376001093770084
:1005D0001093780008C010937A0010937B0010935A
:1005E0007C0010937D008EE190E040DD892B19F5B1
:1005F00080E090E0FC01EB58FF4F108201968930BB
:100600009105C1F78EE190E031DD892BA1F40F5FF8
:100610000330B1F68CE291E029DD892B61F480E0B2
:10062000FF2009F481E0F82E80916A0090916B0020
:100630008C549D4124F21F910F91FF90089520E06A
:1006400030E0482F50E0460F511D9FE0281718F06A
:10065000241735072CF0F901EB58FF4F108204C026
:10066000F901EB58FF4F90832F5F3F4F2930310541
:1006700069F70895EF92FF920F931F9310926B000A
:1006800010926A0080E090E0FC01EB58FF4F10826E
:10069000019689309105C1F710E001E0FF24F39441
:1006A00048C0812F6F2DCBDF80E590E0DFDC892B08
:1006B00009F048C029E0F21629F58CE291E0D6DC79
:1006C000892B09F03FC01EE010C0FC01EB58FF4F22
:1006D0001083019689309105C1F782E390E0C6DC72
:1006E000892B81F511501F3F19F080E090E0EDCF8C
:1006F00084E690E0BBDCFF24F39401E010E0892B5A
:1007000081F220C0013041F4812F90E08F0D911DC6
:10071000099714F41F5F0EC0112319F0115000E067
:1007200009C083E0E81619F0E39401E0EDCFF394FB
:1007300001E0EE2480916A0090916B008C549D4101
:100740000CF4AFCF1F910F91FF90EF9008950F938E
:100750001F9310926B0010926A000FE01DC0FC0105
:10076000EB58FF4F1082019689309105C1F7812F18
:1007700006C0E82FF0E0EB58FF4F00838D5F893013
:10078000C0F38CE390E072DC892B79F41F5F1330A7
:1007900019F080E090E0E3CF80916A0090916B00C7
:1007A0008C549D4114F410E0F4CF1F910F910895E3
:1007B00044E050E068E070E08031910524F49C0151
:1007C00080E090E003C00F972FE030E0FB01E41BD6
:1007D000F50BEB58FF4F2083443021F0FA01EB5822
:1007E000FF4F20834F5F5F4F4930510529F7089530
:1007F000CF93DF9310926B0010926A0020C0C0E08C
:10080000D0E0CE01D5DF84E090E030DC892BF1F43C
:100810002296C634D105A9F7C6E4D0E0CE01C8DFE0
:1008200084E090E023DC892B89F422972FEFCE3FE0
:10083000D207A1F788EC90E019DC892B39F480917C
:100840006A0090916B008C549D41CCF2DF91CF9166
:100850000895FF920F931F93CF93DF9310926B0035
:1008600010926A00C0E0D0E06FE0F62E8E010B58C7
:100870001F4FF801F0828CE390E0F8DB892B09F040
:1008800041C0F80110822196C930D10579F711E0F5
:1008900013C0FC01EB58FF4F10830196893091057E
:1008A000C1F78CE390E0E2DB892B61F51F5F1F301D
:1008B00019F4C0E0D0E023C080E090E0EACFFC0172
:1008C000EB58FF4F1083019689309105C1F78CE3F7
:1008D00090E0CCDB892BB1F480E090E0FC01EB5898
:1008E000FF4F1082019689309105C1F78CE390E0AB
:1008F000BDDB892B39F42196C330D10519F080E096
:1009000090E0DDCFDF91CF911F910F91FF9008957F
:100910000895FF920F931F93CF93DF9310926B0074
:1009200010926A0080E090E0FC01EB58FF4F1082CB
:10093000019689309105C1F718C0C0E0D0E08E0162
:100940000B581F4FF801F08284E190E08FDB892B78
:10095000A9F4F80110822196C930D10581F784E607
:1009600090E084DB892B19F009C07FE0F72E80919D
:100970006A0090916B008C549D41FCF2DF91CF9105
:100980001F910F91FF90089510926B0010926A00D2
:1009900020E030E04FEFF901EB58FF4F821793074B
:1009A00014F0408301C010822F5F3F4F2930310582
:1009B00091F7089510926B0010926A00FFCF1ABC55
:1009C00081E083BF12BE82E089BF08958BB7806249
:1009D0008BBFA89A08951F920F920FB60F92112401
:1009E0008F9385B78F7D85BF8BB78F7D8BBFA89881
:1009F0008F910F900FBE0F901F901895F89489B7A4
:100A00008D7F89BF17BA81E088BBB09BFECF82E3A0
:100A10009DE00197F1F722E33DE043E450E08BB71E
:100A200080628BBFA89A85B7877E806185BF7894E6
:100A300085B7806285BF889585B78F7D85BFC901E1
:100A40000197F1F7B09BFECFC9010197F1F780E064
:100A500090E0B09B09C0FA013197F1F7019661E08F
:100A6000843F9607B1F7DBCF85E690E0909367006F
:100A7000809366001ABC81E083BF12BE82E089BF0A
:100A800008950F931F93CF93DF931ABC81E083BF28
:100A900012BE82E089BF789480E090E0FC01EB58C0
:100AA000FF4F1082019689309105C1F7C0E0D0E078
:100AB00005E610E08091680090916900892B51F063
:100AC0001092690010926800B8DC109367000093E0
:100AD000660094DF20916000309161008091620097
:100AE000909163002817390751F080916000909130
:100AF0006100909363008093620001DBDBCF809103
:100B00006200909163000C9719F4CE01219604C005
:100B10008091620090916300FC013197EB30F10508
:100B200048F6E15FFF4F0994D2DBC4CFC0DCC2CFEF
:100B300032DDC0CFEEDEBECF5BDEBCCFEEDCBACFA7
:100B400099DDB8CF04DEB6CF6EDBB4CF1CDCB2CFFC
:100B50001EDBB0CF1F920F920FB60F9211242F936E
:100B60003F938F939F93AF93BF93EF93FF938091A6
:100B70006C0087BB8091640088BB209172002223A7
:100B800079F5A0917000B0917100A330B10599F48E
:100B90008091780093E1392F381B30936D0080915C
:100BA0007900392F381B30936E0080917A00981BA2
:100BB00090936F0011C0FD01EB58FF4F808180932F
:100BC0006D00FD01EA58FF4F808180936E00A958A7
:100BD000BF4F8C9180936F0080916500809364007B
:100BE00080916D00821729F4809164008E7F80933C
:100BF000640080916E00821729F4809164008D7FDB
:100C00008093640080916F00821729F480916400C2
:100C10008F7E80936400922F9F5F9093720080EC90
:100C200082BF943109F07CC01092720080917300F1
:100C300090917400039709F041C017BA81E088BB16
:100C40008091660090916700B09910C001969093D2
:100C500067008093660001978436910509F581E06D
:100C600090E090936900809368001AC006978F35D2
:100C7000910590F480916000909161000C9719F4B7
:100C800081E090E005C08091600090916100019644
:100C9000909361008093600010926700109266004C
:100CA00018BA109274001092730080916A009091AB
:100CB0006B00019690936B0080936A002091730003
:100CC000309174002115310541F487E180936C0067
:100CD00010927100109270001AC02130310559F441
:100CE00083E090E0909371008093700087E180939F
:100CF0006C008FE10DC02230310561F486E090E098
:100D000090937100809370008BE180936C0083E17D
:100D1000809365002F5F3F4F3093740020937300E2
:100D2000FF91EF91BF91AF919F918F913F912F9143
:0E0D30000F900FBE0F901F901895F894FFCFF4
:060D3E0001000100131387
:00000001FF
